{
  "_format": "hh-sol-artifact-1",
  "contractName": "Faucet",
  "sourceName": "contracts/Faucet.sol",
  "abi": [
    {
      "inputs": [
        {
          "internalType": "contract IERC20",
          "name": "_token",
          "type": "address"
        },
        {
          "internalType": "uint256",
          "name": "_amount",
          "type": "uint256"
        },
        {
          "internalType": "uint256",
          "name": "_cooldown",
          "type": "uint256"
        }
      ],
      "stateMutability": "nonpayable",
      "type": "constructor"
    },
    {
      "inputs": [],
      "name": "amount",
      "outputs": [
        {
          "internalType": "uint256",
          "name": "",
          "type": "uint256"
        }
      ],
      "stateMutability": "view",
      "type": "function"
    },
    {
      "inputs": [],
      "name": "cooldown",
      "outputs": [
        {
          "internalType": "uint256",
          "name": "",
          "type": "uint256"
        }
      ],
      "stateMutability": "view",
      "type": "function"
    },
    {
      "inputs": [
        {
          "internalType": "address",
          "name": "",
          "type": "address"
        }
      ],
      "name": "lastClaim",
      "outputs": [
        {
          "internalType": "uint256",
          "name": "",
          "type": "uint256"
        }
      ],
      "stateMutability": "view",
      "type": "function"
    },
    {
      "inputs": [],
      "name": "requestTokens",
      "outputs": [],
      "stateMutability": "nonpayable",
      "type": "function"
    },
    {
      "inputs": [],
      "name": "token",
      "outputs": [
        {
          "internalType": "contract IERC20",
          "name": "",
          "type": "address"
        }
      ],
      "stateMutability": "view",
      "type": "function"
    }
  ],
  "bytecode": "0x6080604052348015600f57600080fd5b506040516103ee3803806103ee833981016040819052602c916057565b600080546001600160a01b0319166001600160a01b0394909416939093179092556001556002556098565b600080600060608486031215606b57600080fd5b83516001600160a01b0381168114608157600080fd5b602085015160409095015190969495509392505050565b610347806100a76000396000f3fe608060405234801561001057600080fd5b50600436106100575760003560e01c8063359cf2b71461005c5780635c16e15e14610066578063787a08a614610099578063aa8c217c146100a2578063fc0c546a146100ab575b600080fd5b6100646100d6565b005b61008661007436600461027f565b60036020526000908152604090205481565b6040519081526020015b60405180910390f35b61008660025481565b61008660015481565b6000546100be906001600160a01b031681565b6040516001600160a01b039091168152602001610090565b600254336000908152600360205260409020546100f390426102af565b10156101465760405162461bcd60e51b815260206004820152601a60248201527f57616974206265666f726520636c61696d696e6720616761696e00000000000060448201526064015b60405180910390fd5b6001546000546040516370a0823160e01b81523060048201526001600160a01b03909116906370a0823190602401602060405180830381865afa158015610191573d6000803e3d6000fd5b505050506040513d601f19601f820116820180604052508101906101b591906102d6565b10156101f25760405162461bcd60e51b815260206004820152600c60248201526b46617563657420656d70747960a01b604482015260640161013d565b336000818152600360205260408082204290559054600154915163a9059cbb60e01b8152600481019390935260248301919091526001600160a01b03169063a9059cbb906044016020604051808303816000875af1158015610258573d6000803e3d6000fd5b505050506040513d601f19601f8201168201806040525081019061027c91906102ef565b50565b60006020828403121561029157600080fd5b81356001600160a01b03811681146102a857600080fd5b9392505050565b818103818111156102d057634e487b7160e01b600052601160045260246000fd5b92915050565b6000602082840312156102e857600080fd5b5051919050565b60006020828403121561030157600080fd5b815180151581146102a857600080fdfea2646970667358221220b785b3070d3a1f5305743c79c3359e3c487345080a8a1dd5ec428f678ae6b53664736f6c634300081c0033",
  "linkReferences": {},
  "deployedLinkReferences": {}
}